{
  "contractName": "Whitelist",
  "abi": [
    {
      "anonymous": false,
      "inputs": [
        {
          "indexed": false,
          "internalType": "address",
          "name": "_address",
          "type": "address"
        }
      ],
      "name": "Whitelisted",
      "type": "event"
    },
    {
      "inputs": [
        {
          "internalType": "address",
          "name": "",
          "type": "address"
        }
      ],
      "name": "_whitelist",
      "outputs": [
        {
          "internalType": "bool",
          "name": "",
          "type": "bool"
        }
      ],
      "stateMutability": "view",
      "type": "function",
      "constant": true
    },
    {
      "inputs": [
        {
          "internalType": "uint256",
          "name": "",
          "type": "uint256"
        }
      ],
      "name": "addresses",
      "outputs": [
        {
          "internalType": "address",
          "name": "",
          "type": "address"
        }
      ],
      "stateMutability": "view",
      "type": "function",
      "constant": true
    },
    {
      "inputs": [
        {
          "internalType": "address",
          "name": "_address",
          "type": "address"
        }
      ],
      "name": "whitelist",
      "outputs": [],
      "stateMutability": "nonpayable",
      "type": "function"
    },
    {
      "inputs": [],
      "name": "getAddresses",
      "outputs": [
        {
          "internalType": "address[]",
          "name": "",
          "type": "address[]"
        }
      ],
      "stateMutability": "view",
      "type": "function",
      "constant": true
    }
  ],
  "bytecode": "0x608060405234801561001057600080fd5b50610370806100206000396000f3fe608060405234801561001057600080fd5b5060043610610068577c010000000000000000000000000000000000000000000000000000000060003504639b19251a811461006d578063a39fac1214610095578063cfdb63ac146100ed578063edf26d9b14610127575b600080fd5b6100936004803603602081101561008357600080fd5b5035600160a060020a0316610160565b005b61009d610277565b60408051602080825283518183015283519192839290830191858101910280838360005b838110156100d95781810151838201526020016100c1565b505050509050019250505060405180910390f35b6101136004803603602081101561010357600080fd5b5035600160a060020a03166102d9565b604080519115158252519081900360200190f35b6101446004803603602081101561013d57600080fd5b50356102ee565b60408051600160a060020a039092168252519081900360200190f35b600160a060020a03811660009081526020819052604090205460ff16156101d2576040517f08c379a00000000000000000000000000000000000000000000000000000000081526004018080602001828103825260258152602001806103166025913960400191505060405180910390fd5b600160a060020a038116600081815260208181526040808320805460ff191660019081179091558054808201825593527fb10e2d527612073b26eecdfd717e6a320cf44b4afac2b0732d9fcbe2b7fa0cf6909201805473ffffffffffffffffffffffffffffffffffffffff191684179055815192835290517faab7954e9d246b167ef88aeddad35209ca2489d95a8aeb59e288d9b19fae5a549281900390910190a150565b606060018054806020026020016040519081016040528092919081815260200182805480156102cf57602002820191906000526020600020905b8154600160a060020a031681526001909101906020018083116102b1575b5050505050905090565b60006020819052908152604090205460ff1681565b600181815481106102fb57fe5b600091825260209091200154600160a060020a031690508156fe54686973206164647265737320697320616c72656164792077686974656c69737465642021a26469706673582212204384d6ae48a6629e0d7cee8fafe907fec83aeda32686cb077ad6c70b22fd05ec64736f6c634300060b0033",
  "immutableReferences": {},
  "source": "// SPDX-License-Identifier: MIT\npragma solidity 0.6.11;\n\ncontract Whitelist {\n   mapping(address=> bool) public _whitelist;\n   address[] public addresses;\n   event Whitelisted(address _address);\n\n   function whitelist(address _address) public {\n       require(!_whitelist[_address], \"This address is already whitelisted !\");\n       _whitelist[_address] = true;\n       addresses.push(_address);\n       emit Whitelisted(_address);\n   }\n\n   function getAddresses() public view returns(address[] memory){\n       return addresses;\n   }\n}",
  "sourcePath": "/home/bruno/Documents/Alyra/whitelist-react-box/contracts/Whitelist.sol",
  "compiler": {
    "name": "solc",
    "version": "0.6.11+commit.5ef660b1.Emscripten.clang"
  },
  "schemaVersion": "3.3.4",
  "updatedAt": "2021-03-17T12:32:08.427Z",
  "networkType": "ethereum",
  "devdoc": {
    "kind": "dev",
    "methods": {},
    "version": 1
  },
  "userdoc": {
    "kind": "user",
    "methods": {},
    "version": 1
  }
}